{
  "_format": "hh-sol-artifact-1",
  "contractName": "PropertyTokenFactory",
  "sourceName": "contracts/PropertyTokenFactory.sol",
  "abi": [
    {
      "inputs": [
        {
          "internalType": "address",
          "name": "owner_",
          "type": "address"
        }
      ],
      "stateMutability": "nonpayable",
      "type": "constructor"
    },
    {
      "inputs": [
        {
          "internalType": "address",
          "name": "owner",
          "type": "address"
        }
      ],
      "name": "OwnableInvalidOwner",
      "type": "error"
    },
    {
      "inputs": [
        {
          "internalType": "address",
          "name": "account",
          "type": "address"
        }
      ],
      "name": "OwnableUnauthorizedAccount",
      "type": "error"
    },
    {
      "anonymous": false,
      "inputs": [
        {
          "indexed": true,
          "internalType": "address",
          "name": "previousOwner",
          "type": "address"
        },
        {
          "indexed": true,
          "internalType": "address",
          "name": "newOwner",
          "type": "address"
        }
      ],
      "name": "OwnershipTransferred",
      "type": "event"
    },
    {
      "anonymous": false,
      "inputs": [
        {
          "indexed": true,
          "internalType": "string",
          "name": "propertySlugIndexed",
          "type": "string"
        },
        {
          "indexed": false,
          "internalType": "string",
          "name": "propertySlug",
          "type": "string"
        },
        {
          "indexed": true,
          "internalType": "address",
          "name": "tokenAddress",
          "type": "address"
        },
        {
          "indexed": false,
          "internalType": "uint256",
          "name": "maxSupply",
          "type": "uint256"
        },
        {
          "indexed": false,
          "internalType": "uint256",
          "name": "nominalPriceUsd",
          "type": "uint256"
        }
      ],
      "name": "PropertyTokenDeployed",
      "type": "event"
    },
    {
      "inputs": [
        {
          "internalType": "uint256",
          "name": "",
          "type": "uint256"
        }
      ],
      "name": "allTokens",
      "outputs": [
        {
          "internalType": "address",
          "name": "",
          "type": "address"
        }
      ],
      "stateMutability": "view",
      "type": "function"
    },
    {
      "inputs": [
        {
          "internalType": "string",
          "name": "name_",
          "type": "string"
        },
        {
          "internalType": "string",
          "name": "symbol_",
          "type": "string"
        },
        {
          "internalType": "uint256",
          "name": "maxSupply_",
          "type": "uint256"
        },
        {
          "internalType": "uint256",
          "name": "nominalPriceUsd_",
          "type": "uint256"
        },
        {
          "internalType": "string",
          "name": "propertySlug_",
          "type": "string"
        }
      ],
      "name": "deployPropertyToken",
      "outputs": [
        {
          "internalType": "address",
          "name": "",
          "type": "address"
        }
      ],
      "stateMutability": "nonpayable",
      "type": "function"
    },
    {
      "inputs": [],
      "name": "owner",
      "outputs": [
        {
          "internalType": "address",
          "name": "",
          "type": "address"
        }
      ],
      "stateMutability": "view",
      "type": "function"
    },
    {
      "inputs": [],
      "name": "renounceOwnership",
      "outputs": [],
      "stateMutability": "nonpayable",
      "type": "function"
    },
    {
      "inputs": [
        {
          "internalType": "string",
          "name": "",
          "type": "string"
        }
      ],
      "name": "tokenForSlug",
      "outputs": [
        {
          "internalType": "address",
          "name": "",
          "type": "address"
        }
      ],
      "stateMutability": "view",
      "type": "function"
    },
    {
      "inputs": [],
      "name": "totalDeployed",
      "outputs": [
        {
          "internalType": "uint256",
          "name": "",
          "type": "uint256"
        }
      ],
      "stateMutability": "view",
      "type": "function"
    },
    {
      "inputs": [
        {
          "internalType": "address",
          "name": "newOwner",
          "type": "address"
        }
      ],
      "name": "transferOwnership",
      "outputs": [],
      "stateMutability": "nonpayable",
      "type": "function"
    }
  ],
  "bytecode": "0x608060405234801561001057600080fd5b50604051611bb4380380611bb483398101604081905261002f916100be565b806001600160a01b03811661005e57604051631e4fbdf760e01b81526000600482015260240160405180910390fd5b6100678161006e565b50506100ee565b600080546001600160a01b038381166001600160a01b0319831681178455604051919092169283917f8be0079c531659141344cd1fd0a4f28419497f9722a3daafe3b4186f6b6457e09190a35050565b6000602082840312156100d057600080fd5b81516001600160a01b03811681146100e757600080fd5b9392505050565b611ab7806100fd6000396000f3fe60806040523480156200001157600080fd5b5060043610620000875760003560e01c8063634282af1162000062578063634282af1462000109578063715018a614620001205780638da5cb5b146200012c578063f2fde38b146200013e57600080fd5b80630cfb14b0146200008c57806328eccc7f14620000a25780634b7b8cc014620000f2575b600080fd5b6002546040519081526020015b60405180910390f35b620000d9620000b33660046200045e565b80516020818301810180516001825292820191909301209152546001600160a01b031681565b6040516001600160a01b03909116815260200162000099565b620000d96200010336600462000565565b62000155565b620000d96200011a3660046200061c565b62000334565b6200012a6200035f565b005b6000546001600160a01b0316620000d9565b6200012a6200014f36600462000636565b62000377565b600062000161620003bb565b60006001600160a01b0316600184846040516200018092919062000668565b908152604051908190036020019020546001600160a01b031614620001ec5760405162461bcd60e51b815260206004820152601e60248201527f466163746f72793a20736c756720616c7265616479206465706c6f796564000060448201526064015b60405180910390fd5b60008989898989898989620002096000546001600160a01b031690565b60405162000217906200043a565b6200022b99989796959493929190620006a1565b604051809103906000f08015801562000248573d6000803e3d6000fd5b509050600081905080600186866040516200026592919062000668565b90815260405190819003602001812080546001600160a01b039384166001600160a01b031991821617909155600280546001810182556000919091527f405787fa12a823e0f2b7631cc41b3ba8828b3321ca811111fa75cd3aa3bb5ace0180549385169390911683179055620002df908790879062000668565b60405180910390207f95fb16062123439c8c5b47ed85632e6ba21a873ea527efdb3fe14736929c3ebf87878b8b6040516200031e94939291906200070e565b60405180910390a39a9950505050505050505050565b600281815481106200034557600080fd5b6000918252602090912001546001600160a01b0316905081565b62000369620003bb565b620003756000620003ea565b565b62000381620003bb565b6001600160a01b038116620003ad57604051631e4fbdf760e01b815260006004820152602401620001e3565b620003b881620003ea565b50565b6000546001600160a01b03163314620003755760405163118cdaa760e01b8152336004820152602401620001e3565b600080546001600160a01b038381166001600160a01b0319831681178455604051919092169283917f8be0079c531659141344cd1fd0a4f28419497f9722a3daafe3b4186f6b6457e09190a35050565b61134a806200073883390190565b634e487b7160e01b600052604160045260246000fd5b6000602082840312156200047157600080fd5b813567ffffffffffffffff808211156200048a57600080fd5b818401915084601f8301126200049f57600080fd5b813581811115620004b457620004b462000448565b604051601f8201601f19908116603f01168101908382118183101715620004df57620004df62000448565b81604052828152876020848701011115620004f957600080fd5b826020860160208301376000928101602001929092525095945050505050565b60008083601f8401126200052c57600080fd5b50813567ffffffffffffffff8111156200054557600080fd5b6020830191508360208285010111156200055e57600080fd5b9250929050565b60008060008060008060008060a0898b0312156200058257600080fd5b883567ffffffffffffffff808211156200059b57600080fd5b620005a98c838d0162000519565b909a50985060208b0135915080821115620005c357600080fd5b620005d18c838d0162000519565b909850965060408b0135955060608b0135945060808b0135915080821115620005f957600080fd5b50620006088b828c0162000519565b999c989b5096995094979396929594505050565b6000602082840312156200062f57600080fd5b5035919050565b6000602082840312156200064957600080fd5b81356001600160a01b03811681146200066157600080fd5b9392505050565b8183823760009101908152919050565b81835281816020850137506000828201602090810191909152601f909101601f19169091010190565b60c081526000620006b760c083018b8d62000678565b8281036020840152620006cc818a8c62000678565b90508760408401528660608401528281036080840152620006ef81868862000678565b91505060018060a01b03831660a08301529a9950505050505050505050565b6060815260006200072460608301868862000678565b602083019490945250604001529291505056fe60c06040523480156200001157600080fd5b506040516200134a3803806200134a8339810160408190526200003491620002f7565b858560036200004483826200044f565b5060046200005382826200044f565b50505060008411620000b85760405162461bcd60e51b8152602060048201526024808201527f50726f7065727479546f6b656e3a206d6178537570706c79206d7573742062656044820152630203e20360e41b60648201526084015b60405180910390fd5b6001600160a01b0381166200011c5760405162461bcd60e51b8152602060048201526024808201527f50726f7065727479546f6b656e3a2061646d696e206973207a65726f206164646044820152637265737360e01b6064820152608401620000af565b608084905260a083905260066200013483826200044f565b50620001426000826200017c565b506200016f7f9f2df0fed2c77648de5860a4cc508cd0818c85b8b8a1ab4ceeef8d981c8956a6826200017c565b505050505050506200051b565b60008281526005602090815260408083206001600160a01b038516845290915281205460ff16620002255760008381526005602090815260408083206001600160a01b03861684529091529020805460ff19166001179055620001dc3390565b6001600160a01b0316826001600160a01b0316847f2f8788117e7eff1d82e926ec794901d17c78024a50270940304540a733656f0d60405160405180910390a450600162000229565b5060005b92915050565b634e487b7160e01b600052604160045260246000fd5b600082601f8301126200025757600080fd5b81516001600160401b03808211156200027457620002746200022f565b604051601f8301601f19908116603f011681019082821181831017156200029f576200029f6200022f565b8160405283815260209250866020858801011115620002bd57600080fd5b600091505b83821015620002e15785820183015181830184015290820190620002c2565b6000602085830101528094505050505092915050565b60008060008060008060c087890312156200031157600080fd5b86516001600160401b03808211156200032957600080fd5b620003378a838b0162000245565b975060208901519150808211156200034e57600080fd5b6200035c8a838b0162000245565b9650604089015195506060890151945060808901519150808211156200038157600080fd5b506200039089828a0162000245565b60a089015190935090506001600160a01b0381168114620003b057600080fd5b809150509295509295509295565b600181811c90821680620003d357607f821691505b602082108103620003f457634e487b7160e01b600052602260045260246000fd5b50919050565b601f8211156200044a576000816000526020600020601f850160051c81016020861015620004255750805b601f850160051c820191505b81811015620004465782815560010162000431565b5050505b505050565b81516001600160401b038111156200046b576200046b6200022f565b62000483816200047c8454620003be565b84620003fa565b602080601f831160018114620004bb5760008415620004a25750858301515b600019600386901b1c1916600185901b17855562000446565b600085815260208120601f198616915b82811015620004ec57888601518255948401946001909101908401620004cb565b50858210156200050b5787850151600019600388901b60f8161c191681555b5050505050600190811b01905550565b60805160a051610dfb6200054f600039600061026a0152600081816102f60152818161054c01526107350152610dfb6000f3fe608060405234801561001057600080fd5b50600436106101425760003560e01c806391d14854116100b8578063ce3542fb1161007c578063ce3542fb146102af578063d5391393146102b7578063d547741f146102de578063d5abeb01146102f1578063da0239a614610318578063dd62ed3e1461032057600080fd5b806391d1485414610252578063936e0bae1461026557806395d89b411461028c578063a217fddf14610294578063a9059cbb1461029c57600080fd5b8063248a9ca31161010a578063248a9ca3146101bc5780632f2ff15d146101df578063313ce567146101f457806336568abe1461020357806340c10f191461021657806370a082311461022957600080fd5b806301ffc9a71461014757806306fdde031461016f578063095ea7b31461018457806318160ddd1461019757806323b872dd146101a9575b600080fd5b61015a610155366004610bc3565b610359565b60405190151581526020015b60405180910390f35b610177610390565b6040516101669190610bf4565b61015a610192366004610c5f565b610422565b6002545b604051908152602001610166565b61015a6101b7366004610c89565b61043a565b61019b6101ca366004610cc5565b60009081526005602052604090206001015490565b6101f26101ed366004610cde565b61045e565b005b60405160008152602001610166565b6101f2610211366004610cde565b610489565b6101f2610224366004610c5f565b6104c1565b61019b610237366004610d0a565b6001600160a01b031660009081526020819052604090205490565b61015a610260366004610cde565b610629565b61019b7f000000000000000000000000000000000000000000000000000000000000000081565b610177610654565b61019b600081565b61015a6102aa366004610c5f565b610663565b610177610671565b61019b7f9f2df0fed2c77648de5860a4cc508cd0818c85b8b8a1ab4ceeef8d981c8956a681565b6101f26102ec366004610cde565b6106ff565b61019b7f000000000000000000000000000000000000000000000000000000000000000081565b61019b610724565b61019b61032e366004610d25565b6001600160a01b03918216600090815260016020908152604080832093909416825291909152205490565b60006001600160e01b03198216637965db0b60e01b148061038a57506301ffc9a760e01b6001600160e01b03198316145b92915050565b60606003805461039f90610d4f565b80601f01602080910402602001604051908101604052809291908181526020018280546103cb90610d4f565b80156104185780601f106103ed57610100808354040283529160200191610418565b820191906000526020600020905b8154815290600101906020018083116103fb57829003601f168201915b5050505050905090565b60003361043081858561075e565b5060019392505050565b60003361044885828561076b565b6104538585856107e4565b506001949350505050565b60008281526005602052604090206001015461047981610843565b6104838383610850565b50505050565b6001600160a01b03811633146104b25760405163334bd91960e11b815260040160405180910390fd5b6104bc82826108e4565b505050565b7f9f2df0fed2c77648de5860a4cc508cd0818c85b8b8a1ab4ceeef8d981c8956a66104eb81610843565b6000821161054a5760405162461bcd60e51b815260206004820152602160248201527f50726f7065727479546f6b656e3a20616d6f756e74206d757374206265203e206044820152600360fc1b60648201526084015b60405180910390fd5b7f00000000000000000000000000000000000000000000000000000000000000008261057560025490565b61057f9190610d9f565b11156105cd5760405162461bcd60e51b815260206004820152601b60248201527f50726f7065727479546f6b656e3a2063617020657863656564656400000000006044820152606401610541565b6105d78383610951565b826001600160a01b03167f2e8ac5177a616f2aec08c3048f5021e4e9743ece034e8d83ba5caf76688bb4758361060c60025490565b6040805192835260208301919091520160405180910390a2505050565b60009182526005602090815260408084206001600160a01b0393909316845291905290205460ff1690565b60606004805461039f90610d4f565b6000336104308185856107e4565b6006805461067e90610d4f565b80601f01602080910402602001604051908101604052809291908181526020018280546106aa90610d4f565b80156106f75780601f106106cc576101008083540402835291602001916106f7565b820191906000526020600020905b8154815290600101906020018083116106da57829003601f168201915b505050505081565b60008281526005602052604090206001015461071a81610843565b61048383836108e4565b600061072f60025490565b610759907f0000000000000000000000000000000000000000000000000000000000000000610db2565b905090565b6104bc838383600161098b565b6001600160a01b0383811660009081526001602090815260408083209386168352929052205460001981101561048357818110156107d557604051637dc7a0d960e11b81526001600160a01b03841660048201526024810182905260448101839052606401610541565b6104838484848403600061098b565b6001600160a01b03831661080e57604051634b637e8f60e11b815260006004820152602401610541565b6001600160a01b0382166108385760405163ec442f0560e01b815260006004820152602401610541565b6104bc838383610a60565b61084d8133610b8a565b50565b600061085c8383610629565b6108dc5760008381526005602090815260408083206001600160a01b03861684529091529020805460ff191660011790556108943390565b6001600160a01b0316826001600160a01b0316847f2f8788117e7eff1d82e926ec794901d17c78024a50270940304540a733656f0d60405160405180910390a450600161038a565b50600061038a565b60006108f08383610629565b156108dc5760008381526005602090815260408083206001600160a01b0386168085529252808320805460ff1916905551339286917ff6391f5c32d9c69d2a47ea670b442974b53935d1edc7fd64eb21e047a839171b9190a450600161038a565b6001600160a01b03821661097b5760405163ec442f0560e01b815260006004820152602401610541565b61098760008383610a60565b5050565b6001600160a01b0384166109b55760405163e602df0560e01b815260006004820152602401610541565b6001600160a01b0383166109df57604051634a1406b160e11b815260006004820152602401610541565b6001600160a01b038085166000908152600160209081526040808320938716835292905220829055801561048357826001600160a01b0316846001600160a01b03167f8c5be1e5ebec7d5bd14f71427d1e84f3dd0314c0f7b2291e5b200ac8c7c3b92584604051610a5291815260200190565b60405180910390a350505050565b6001600160a01b038316610a8b578060026000828254610a809190610d9f565b90915550610afd9050565b6001600160a01b03831660009081526020819052604090205481811015610ade5760405163391434e360e21b81526001600160a01b03851660048201526024810182905260448101839052606401610541565b6001600160a01b03841660009081526020819052604090209082900390555b6001600160a01b038216610b1957600280548290039055610b38565b6001600160a01b03821660009081526020819052604090208054820190555b816001600160a01b0316836001600160a01b03167fddf252ad1be2c89b69c2b068fc378daa952ba7f163c4a11628f55a4df523b3ef83604051610b7d91815260200190565b60405180910390a3505050565b610b948282610629565b6109875760405163e2517d3f60e01b81526001600160a01b038216600482015260248101839052604401610541565b600060208284031215610bd557600080fd5b81356001600160e01b031981168114610bed57600080fd5b9392505050565b60006020808352835180602085015260005b81811015610c2257858101830151858201604001528201610c06565b506000604082860101526040601f19601f8301168501019250505092915050565b80356001600160a01b0381168114610c5a57600080fd5b919050565b60008060408385031215610c7257600080fd5b610c7b83610c43565b946020939093013593505050565b600080600060608486031215610c9e57600080fd5b610ca784610c43565b9250610cb560208501610c43565b9150604084013590509250925092565b600060208284031215610cd757600080fd5b5035919050565b60008060408385031215610cf157600080fd5b82359150610d0160208401610c43565b90509250929050565b600060208284031215610d1c57600080fd5b610bed82610c43565b60008060408385031215610d3857600080fd5b610d4183610c43565b9150610d0160208401610c43565b600181811c90821680610d6357607f821691505b602082108103610d8357634e487b7160e01b600052602260045260246000fd5b50919050565b634e487b7160e01b600052601160045260246000fd5b8082018082111561038a5761038a610d89565b8181038181111561038a5761038a610d8956fea2646970667358221220535f6f7c73d3b8a7ea3edd0baa455706fcd86dc50c0727fe6639ee93e7008d7264736f6c63430008180033a264697066735822122088f604cbbc60e69e1d625ca2b2063e75b4c4afa9ce61a97ebe98ede627352a4d64736f6c63430008180033",
  "linkReferences": {},
  "deployedLinkReferences": {}
}